{
  "contractName": "AccessControlWallet",
  "abi": [
    {
      "inputs": [
        {
          "internalType": "contract InterfaceWallet",
          "name": "_wallet",
          "type": "address"
        },
        {
          "internalType": "address[]",
          "name": "_owners",
          "type": "address[]"
        }
      ],
      "stateMutability": "nonpayable",
      "type": "constructor"
    },
    {
      "anonymous": false,
      "inputs": [
        {
          "indexed": true,
          "internalType": "address",
          "name": "newAdmin",
          "type": "address"
        }
      ],
      "name": "AdminTransfer",
      "type": "event"
    },
    {
      "anonymous": false,
      "inputs": [
        {
          "indexed": true,
          "internalType": "address",
          "name": "sender",
          "type": "address"
        },
        {
          "indexed": true,
          "internalType": "uint256",
          "name": "transactionId",
          "type": "uint256"
        }
      ],
      "name": "Confirmation",
      "type": "event"
    },
    {
      "anonymous": false,
      "inputs": [
        {
          "indexed": true,
          "internalType": "address",
          "name": "sender",
          "type": "address"
        },
        {
          "indexed": false,
          "internalType": "uint256",
          "name": "value",
          "type": "uint256"
        }
      ],
      "name": "Deposit",
      "type": "event"
    },
    {
      "anonymous": false,
      "inputs": [
        {
          "indexed": true,
          "internalType": "uint256",
          "name": "transactionId",
          "type": "uint256"
        }
      ],
      "name": "Execution",
      "type": "event"
    },
    {
      "anonymous": false,
      "inputs": [
        {
          "indexed": true,
          "internalType": "uint256",
          "name": "transactionId",
          "type": "uint256"
        }
      ],
      "name": "ExecutionFailure",
      "type": "event"
    },
    {
      "anonymous": false,
      "inputs": [
        {
          "indexed": true,
          "internalType": "address",
          "name": "owner",
          "type": "address"
        }
      ],
      "name": "OwnerAddition",
      "type": "event"
    },
    {
      "anonymous": false,
      "inputs": [
        {
          "indexed": true,
          "internalType": "address",
          "name": "owner",
          "type": "address"
        }
      ],
      "name": "OwnerRemoval",
      "type": "event"
    },
    {
      "anonymous": false,
      "inputs": [
        {
          "indexed": false,
          "internalType": "uint256",
          "name": "quorum",
          "type": "uint256"
        }
      ],
      "name": "QuorumUpdate",
      "type": "event"
    },
    {
      "anonymous": false,
      "inputs": [
        {
          "indexed": true,
          "internalType": "address",
          "name": "sender",
          "type": "address"
        },
        {
          "indexed": true,
          "internalType": "uint256",
          "name": "transactionId",
          "type": "uint256"
        }
      ],
      "name": "Revocation",
      "type": "event"
    },
    {
      "anonymous": false,
      "inputs": [
        {
          "indexed": true,
          "internalType": "uint256",
          "name": "transactionId",
          "type": "uint256"
        }
      ],
      "name": "Submission",
      "type": "event"
    },
    {
      "inputs": [
        {
          "internalType": "address",
          "name": "owner",
          "type": "address"
        }
      ],
      "name": "addOwner",
      "outputs": [],
      "stateMutability": "nonpayable",
      "type": "function"
    },
    {
      "inputs": [],
      "name": "admin",
      "outputs": [
        {
          "internalType": "address",
          "name": "",
          "type": "address"
        }
      ],
      "stateMutability": "view",
      "type": "function",
      "constant": true
    },
    {
      "inputs": [
        {
          "internalType": "address",
          "name": "",
          "type": "address"
        }
      ],
      "name": "isOwner",
      "outputs": [
        {
          "internalType": "bool",
          "name": "",
          "type": "bool"
        }
      ],
      "stateMutability": "view",
      "type": "function",
      "constant": true
    },
    {
      "inputs": [
        {
          "internalType": "uint256",
          "name": "",
          "type": "uint256"
        }
      ],
      "name": "owners",
      "outputs": [
        {
          "internalType": "address",
          "name": "",
          "type": "address"
        }
      ],
      "stateMutability": "view",
      "type": "function",
      "constant": true
    },
    {
      "inputs": [
        {
          "internalType": "address",
          "name": "owner",
          "type": "address"
        }
      ],
      "name": "removeOwner",
      "outputs": [],
      "stateMutability": "nonpayable",
      "type": "function"
    },
    {
      "inputs": [
        {
          "internalType": "address",
          "name": "newAdmin",
          "type": "address"
        }
      ],
      "name": "renounceAdmin",
      "outputs": [],
      "stateMutability": "nonpayable",
      "type": "function"
    },
    {
      "inputs": [
        {
          "internalType": "address",
          "name": "_from",
          "type": "address"
        },
        {
          "internalType": "address",
          "name": "_to",
          "type": "address"
        }
      ],
      "name": "transferOwner",
      "outputs": [],
      "stateMutability": "nonpayable",
      "type": "function"
    },
    {
      "inputs": [],
      "name": "getOwners",
      "outputs": [
        {
          "internalType": "address[]",
          "name": "",
          "type": "address[]"
        }
      ],
      "stateMutability": "view",
      "type": "function",
      "constant": true
    },
    {
      "inputs": [],
      "name": "getAdmin",
      "outputs": [
        {
          "internalType": "address",
          "name": "",
          "type": "address"
        }
      ],
      "stateMutability": "view",
      "type": "function",
      "constant": true
    }
  ],
  "bytecode": "0x60806040523480156200001157600080fd5b5060405162000fa038038062000fa0833981016040819052620000349162000284565b600080546001600160a01b031916331790558051819060031115620000ab5760405162461bcd60e51b815260206004820152602360248201527f54686572652073686f756c642062652061746c6561737420332061646472657360448201526273657360e81b606482015260840160405180910390fd5b60005b81518110156200011a57600160026000848481518110620000d357620000d36200036f565b6020908102919091018101516001600160a01b03168252810191909152604001600020805460ff19169115159190911790558062000111816200039b565b915050620000ae565b50805162000130906001906020840190620001c2565b50600062000150600180549050603c6200019f60201b620008fa1760201c565b90506200016a816064620001b460201b6200090d1760201c565b6003555050600480546001600160a01b039093166001600160a01b0319938416179055506000805490911633179055620003fe565b6000620001ad8284620003b9565b9392505050565b6000620001ad8284620003db565b8280548282559060005260206000209081019282156200021a579160200282015b828111156200021a57825182546001600160a01b0319166001600160a01b03909116178255602090920191600190910190620001e3565b50620002289291506200022c565b5090565b5b808211156200022857600081556001016200022d565b6001600160a01b03811681146200025957600080fd5b50565b634e487b7160e01b600052604160045260246000fd5b80516200027f8162000243565b919050565b600080604083850312156200029857600080fd5b8251620002a58162000243565b602084810151919350906001600160401b0380821115620002c557600080fd5b818601915086601f830112620002da57600080fd5b815181811115620002ef57620002ef6200025c565b8060051b604051601f19603f830116810181811085821117156200031757620003176200025c565b6040529182528482019250838101850191898311156200033657600080fd5b938501935b828510156200035f576200034f8562000272565b845293850193928501926200033b565b8096505050505050509250929050565b634e487b7160e01b600052603260045260246000fd5b634e487b7160e01b600052601160045260246000fd5b6000600019821415620003b257620003b262000385565b5060010190565b6000816000190483118215151615620003d657620003d662000385565b500290565b600082620003f957634e487b7160e01b600052601260045260246000fd5b500490565b610b92806200040e6000396000f3fe608060405234801561001057600080fd5b50600436106100935760003560e01c80635e1fab0f116100665780635e1fab0f146101235780636e9960c3146101365780637065cb4814610147578063a0e67e2b1461015a578063f851a4401461016f57600080fd5b8063025e7c2714610098578063173825d9146100c85780632f54bf6e146100dd57806331678cf614610110575b600080fd5b6100ab6100a6366004610970565b610182565b6040516001600160a01b0390911681526020015b60405180910390f35b6100db6100d63660046109a5565b6101ac565b005b6101006100eb3660046109a5565b60026020526000908152604090205460ff1681565b60405190151581526020016100bf565b6100db61011e3660046109c0565b610411565b6100db6101313660046109a5565b61068d565b6000546001600160a01b03166100ab565b6100db6101553660046109a5565b6106ff565b610162610898565b6040516100bf91906109f3565b6000546100ab906001600160a01b031681565b6001818154811061019257600080fd5b6000918252602090912001546001600160a01b0316905081565b6000546001600160a01b031633146101df5760405162461bcd60e51b81526004016101d690610a40565b60405180910390fd5b806001600160a01b0381166102065760405162461bcd60e51b81526004016101d690610a77565b6001600160a01b038216600090815260026020526040902054829060ff1615156001146102715760405162461bcd60e51b8152602060048201526019602482015278151a1a5cc81bdddb995c88191bd95cc81b9bdd08195e1a5cdd603a1b60448201526064016101d6565b6001600160a01b0383166000908152600260205260408120805460ff191690555b600180546102a09190610abd565b81101561036f57836001600160a01b0316600182815481106102c4576102c4610ad4565b6000918252602090912001546001600160a01b0316141561035d57600180546102ee908290610abd565b815481106102fe576102fe610ad4565b600091825260209091200154600180546001600160a01b03909216918390811061032a5761032a610ad4565b9060005260206000200160006101000a8154816001600160a01b0302191690836001600160a01b0316021790555061036f565b8061036781610aea565b915050610292565b50600180548061038157610381610b05565b6001900381819060005260206000200160006101000a8154906001600160a01b030219169055905561040c600180548060200260200160405190810160405280929190818152602001828054801561040257602002820191906000526020600020905b81546001600160a01b031681526001909101906020018083116103e4575b5050505050610919565b505050565b6000546001600160a01b0316331461043b5760405162461bcd60e51b81526004016101d690610a40565b816001600160a01b0381166104625760405162461bcd60e51b81526004016101d690610a77565b816001600160a01b0381166104895760405162461bcd60e51b81526004016101d690610a77565b6001600160a01b038416600090815260026020526040902054849060ff1615156001146104f45760405162461bcd60e51b8152602060048201526019602482015278151a1a5cc81bdddb995c88191bd95cc81b9bdd08195e1a5cdd603a1b60448201526064016101d6565b6001600160a01b038416600090815260026020526040902054849060ff16156105535760405162461bcd60e51b815260206004820152601160248201527054686973206f776e65722065786973747360781b60448201526064016101d6565b60005b6001548110156105f157866001600160a01b03166001828154811061057d5761057d610ad4565b6000918252602090912001546001600160a01b031614156105df5785600182815481106105ac576105ac610ad4565b9060005260206000200160006101000a8154816001600160a01b0302191690836001600160a01b031602179055506105f1565b806105e981610aea565b915050610556565b506001600160a01b03808716600081815260026020526040808220805460ff1990811690915593891682528082208054909416600117909355915190917f8001553a916ef2f495d26a907cc54d96ed840d7bda71e73194bf5a9df7a76b9091a26040516001600160a01b038616907ff39e6e1eb0edcf53c221607b54b00cd28f3196fed0a24994dc308b8f611b682d90600090a2505050505050565b6000546001600160a01b031633146106b75760405162461bcd60e51b81526004016101d690610a40565b600080546001600160a01b0319166001600160a01b038316908117825560405190917f1d751f0bc5c9e1dd4d5952599ce7bb9ef42169fb73003fc75d9e6a26d135136c91a250565b6000546001600160a01b031633146107295760405162461bcd60e51b81526004016101d690610a40565b806001600160a01b0381166107505760405162461bcd60e51b81526004016101d690610a77565b6001600160a01b038216600090815260026020526040902054829060ff16156107af5760405162461bcd60e51b815260206004820152601160248201527054686973206f776e65722065786973747360781b60448201526064016101d6565b6001600160a01b038316600081815260026020526040808220805460ff19166001908117909155805480820182559083527fb10e2d527612073b26eecdfd717e6a320cf44b4afac2b0732d9fcbe2b7fa0cf60180546001600160a01b03191684179055517ff39e6e1eb0edcf53c221607b54b00cd28f3196fed0a24994dc308b8f611b682d9190a261040c6001805480602002602001604051908101604052809291908181526020018280548015610402576020028201919060005260206000209081546001600160a01b031681526001909101906020018083116103e4575050505050610919565b606060018054806020026020016040519081016040528092919081815260200182805480156108f057602002820191906000526020600020905b81546001600160a01b031681526001909101906020018083116108d2575b5050505050905090565b60006109068284610b1b565b9392505050565b60006109068284610b3a565b60006109278251603c6108fa565b905061093481606461090d565b60038190556040519081527f672e46ac0e6acc1662bb680b70032b6d2669924997353a59f789f7be780f8d3e9060200160405180910390a15050565b60006020828403121561098257600080fd5b5035919050565b80356001600160a01b03811681146109a057600080fd5b919050565b6000602082840312156109b757600080fd5b61090682610989565b600080604083850312156109d357600080fd5b6109dc83610989565b91506109ea60208401610989565b90509250929050565b6020808252825182820181905260009190848201906040850190845b81811015610a345783516001600160a01b031683529284019291840191600101610a0f565b50909695505050505050565b6020808252601e908201527f43616e74206265206163636573736564206f6e6c792062792061646d696e0000604082015260600190565b6020808252601690820152751059191c995cdcc8111bd95cc81b9bdd08195e1a5cdd60521b604082015260600190565b634e487b7160e01b600052601160045260246000fd5b600082821015610acf57610acf610aa7565b500390565b634e487b7160e01b600052603260045260246000fd5b6000600019821415610afe57610afe610aa7565b5060010190565b634e487b7160e01b600052603160045260246000fd5b6000816000190483118215151615610b3557610b35610aa7565b500290565b600082610b5757634e487b7160e01b600052601260045260246000fd5b50049056fea26469706673582212205d9976bef10b95ceb8a06f29ef4f26cd7fabc505a097c3ec071206e45455120164736f6c63430008090033",
  "immutableReferences": {},
  "source": "pragma solidity ^0.8.9;\n\nimport \"./InterfaceWallet.sol\";\nimport \"./AccessControl.sol\";\nimport \"../node_modules/@openzeppelin/contracts/utils/math/SafeMath.sol\";\n\ncontract AccessControlWallet is AccessControl {\n    using SafeMath for uint256;\n\n    InterfaceWallet _walletInterface;\n\n    constructor(InterfaceWallet _wallet, address[] memory _owners) AccessControl(_owners){\n        _walletInterface = InterfaceWallet(_wallet);\n        admin = msg.sender;\n    }\n\n    function getOwners() external view returns (address[] memory){\n        return owners;\n    }\n\n    function getAdmin() external view returns (address) {\n        return admin;\n    }\n\n}\n",
  "sourcePath": "/Users/akashneelesh/Desktop/TokenTruffle/contracts/AccessControlWallet.sol",
  "compiler": {
    "name": "solc",
    "version": "0.8.9+commit.e5eed63a.Emscripten.clang"
  },
  "schemaVersion": "3.4.11",
  "updatedAt": "2022-12-18T12:10:26.647Z",
  "networkType": "ethereum",
  "devdoc": {
    "kind": "dev",
    "methods": {},
    "version": 1
  },
  "userdoc": {
    "kind": "user",
    "methods": {},
    "version": 1
  }
}