{
  "contractName": "AccessControl",
  "abi": [
    {
      "inputs": [
        {
          "internalType": "address[]",
          "name": "_owners",
          "type": "address[]"
        }
      ],
      "stateMutability": "nonpayable",
      "type": "constructor"
    },
    {
      "anonymous": false,
      "inputs": [
        {
          "indexed": true,
          "internalType": "address",
          "name": "newAdmin",
          "type": "address"
        }
      ],
      "name": "AdminTransfer",
      "type": "event"
    },
    {
      "anonymous": false,
      "inputs": [
        {
          "indexed": true,
          "internalType": "address",
          "name": "sender",
          "type": "address"
        },
        {
          "indexed": true,
          "internalType": "uint256",
          "name": "transactionId",
          "type": "uint256"
        }
      ],
      "name": "Confirmation",
      "type": "event"
    },
    {
      "anonymous": false,
      "inputs": [
        {
          "indexed": true,
          "internalType": "address",
          "name": "sender",
          "type": "address"
        },
        {
          "indexed": false,
          "internalType": "uint256",
          "name": "value",
          "type": "uint256"
        }
      ],
      "name": "Deposit",
      "type": "event"
    },
    {
      "anonymous": false,
      "inputs": [
        {
          "indexed": true,
          "internalType": "uint256",
          "name": "transactionId",
          "type": "uint256"
        }
      ],
      "name": "Execution",
      "type": "event"
    },
    {
      "anonymous": false,
      "inputs": [
        {
          "indexed": true,
          "internalType": "uint256",
          "name": "transactionId",
          "type": "uint256"
        }
      ],
      "name": "ExecutionFailure",
      "type": "event"
    },
    {
      "anonymous": false,
      "inputs": [
        {
          "indexed": true,
          "internalType": "address",
          "name": "owner",
          "type": "address"
        }
      ],
      "name": "OwnerAddition",
      "type": "event"
    },
    {
      "anonymous": false,
      "inputs": [
        {
          "indexed": true,
          "internalType": "address",
          "name": "owner",
          "type": "address"
        }
      ],
      "name": "OwnerRemoval",
      "type": "event"
    },
    {
      "anonymous": false,
      "inputs": [
        {
          "indexed": false,
          "internalType": "uint256",
          "name": "quorum",
          "type": "uint256"
        }
      ],
      "name": "QuorumUpdate",
      "type": "event"
    },
    {
      "anonymous": false,
      "inputs": [
        {
          "indexed": true,
          "internalType": "address",
          "name": "sender",
          "type": "address"
        },
        {
          "indexed": true,
          "internalType": "uint256",
          "name": "transactionId",
          "type": "uint256"
        }
      ],
      "name": "Revocation",
      "type": "event"
    },
    {
      "anonymous": false,
      "inputs": [
        {
          "indexed": true,
          "internalType": "uint256",
          "name": "transactionId",
          "type": "uint256"
        }
      ],
      "name": "Submission",
      "type": "event"
    },
    {
      "inputs": [],
      "name": "admin",
      "outputs": [
        {
          "internalType": "address",
          "name": "",
          "type": "address"
        }
      ],
      "stateMutability": "view",
      "type": "function"
    },
    {
      "inputs": [
        {
          "internalType": "address",
          "name": "",
          "type": "address"
        }
      ],
      "name": "isOwner",
      "outputs": [
        {
          "internalType": "bool",
          "name": "",
          "type": "bool"
        }
      ],
      "stateMutability": "view",
      "type": "function"
    },
    {
      "inputs": [
        {
          "internalType": "uint256",
          "name": "",
          "type": "uint256"
        }
      ],
      "name": "owners",
      "outputs": [
        {
          "internalType": "address",
          "name": "",
          "type": "address"
        }
      ],
      "stateMutability": "view",
      "type": "function"
    },
    {
      "inputs": [
        {
          "internalType": "address",
          "name": "owner",
          "type": "address"
        }
      ],
      "name": "addOwner",
      "outputs": [],
      "stateMutability": "nonpayable",
      "type": "function"
    },
    {
      "inputs": [
        {
          "internalType": "address",
          "name": "owner",
          "type": "address"
        }
      ],
      "name": "removeOwner",
      "outputs": [],
      "stateMutability": "nonpayable",
      "type": "function"
    },
    {
      "inputs": [
        {
          "internalType": "address",
          "name": "_from",
          "type": "address"
        },
        {
          "internalType": "address",
          "name": "_to",
          "type": "address"
        }
      ],
      "name": "transferOwner",
      "outputs": [],
      "stateMutability": "nonpayable",
      "type": "function"
    },
    {
      "inputs": [
        {
          "internalType": "address",
          "name": "newAdmin",
          "type": "address"
        }
      ],
      "name": "renounceAdmin",
      "outputs": [],
      "stateMutability": "nonpayable",
      "type": "function"
    }
  ],
  "bytecode": "0x60806040523480156200001157600080fd5b5060405162000e6338038062000e6383398101604081905262000034916200024b565b600080546001600160a01b03191633179055805160031115620000a95760405162461bcd60e51b815260206004820152602360248201527f54686572652073686f756c642062652061746c6561737420332061646472657360448201526273657360e81b606482015260840160405180910390fd5b60005b81518110156200011857600160026000848481518110620000d157620000d16200031d565b6020908102919091018101516001600160a01b03168252810191909152604001600020805460ff1916911515919091179055806200010f8162000349565b915050620000ac565b5080516200012e90600190602084019062000197565b5060006200014e600180549050603c6200017460201b6200085c1760201c565b9050620001688160646200018960201b6200086f1760201c565b60035550620003ac9050565b600062000182828462000367565b9392505050565b600062000182828462000389565b828054828255906000526020600020908101928215620001ef579160200282015b82811115620001ef57825182546001600160a01b0319166001600160a01b03909116178255602090920191600190910190620001b8565b50620001fd92915062000201565b5090565b5b80821115620001fd576000815560010162000202565b634e487b7160e01b600052604160045260246000fd5b80516001600160a01b03811681146200024657600080fd5b919050565b600060208083850312156200025f57600080fd5b82516001600160401b03808211156200027757600080fd5b818501915085601f8301126200028c57600080fd5b815181811115620002a157620002a162000218565b8060051b604051601f19603f83011681018181108582111715620002c957620002c962000218565b604052918252848201925083810185019188831115620002e857600080fd5b938501935b82851015620003115762000301856200022e565b84529385019392850192620002ed565b98975050505050505050565b634e487b7160e01b600052603260045260246000fd5b634e487b7160e01b600052601160045260246000fd5b600060001982141562000360576200036062000333565b5060010190565b600081600019048311821515161562000384576200038462000333565b500290565b600082620003a757634e487b7160e01b600052601260045260246000fd5b500490565b610aa780620003bc6000396000f3fe608060405234801561001057600080fd5b506004361061007d5760003560e01c806331678cf61161005b57806331678cf6146100fa5780635e1fab0f1461010d5780637065cb4814610120578063f851a4401461013357600080fd5b8063025e7c2714610082578063173825d9146100b25780632f54bf6e146100c7575b600080fd5b6100956100903660046108d2565b610146565b6040516001600160a01b0390911681526020015b60405180910390f35b6100c56100c0366004610907565b610170565b005b6100ea6100d5366004610907565b60026020526000908152604090205460ff1681565b60405190151581526020016100a9565b6100c5610108366004610922565b6103d5565b6100c561011b366004610907565b610651565b6100c561012e366004610907565b6106c3565b600054610095906001600160a01b031681565b6001818154811061015657600080fd5b6000918252602090912001546001600160a01b0316905081565b6000546001600160a01b031633146101a35760405162461bcd60e51b815260040161019a90610955565b60405180910390fd5b806001600160a01b0381166101ca5760405162461bcd60e51b815260040161019a9061098c565b6001600160a01b038216600090815260026020526040902054829060ff1615156001146102355760405162461bcd60e51b8152602060048201526019602482015278151a1a5cc81bdddb995c88191bd95cc81b9bdd08195e1a5cdd603a1b604482015260640161019a565b6001600160a01b0383166000908152600260205260408120805460ff191690555b6001805461026491906109d2565b81101561033357836001600160a01b031660018281548110610288576102886109e9565b6000918252602090912001546001600160a01b0316141561032157600180546102b29082906109d2565b815481106102c2576102c26109e9565b600091825260209091200154600180546001600160a01b0390921691839081106102ee576102ee6109e9565b9060005260206000200160006101000a8154816001600160a01b0302191690836001600160a01b03160217905550610333565b8061032b816109ff565b915050610256565b50600180548061034557610345610a1a565b6001900381819060005260206000200160006101000a8154906001600160a01b03021916905590556103d060018054806020026020016040519081016040528092919081815260200182805480156103c657602002820191906000526020600020905b81546001600160a01b031681526001909101906020018083116103a8575b505050505061087b565b505050565b6000546001600160a01b031633146103ff5760405162461bcd60e51b815260040161019a90610955565b816001600160a01b0381166104265760405162461bcd60e51b815260040161019a9061098c565b816001600160a01b03811661044d5760405162461bcd60e51b815260040161019a9061098c565b6001600160a01b038416600090815260026020526040902054849060ff1615156001146104b85760405162461bcd60e51b8152602060048201526019602482015278151a1a5cc81bdddb995c88191bd95cc81b9bdd08195e1a5cdd603a1b604482015260640161019a565b6001600160a01b038416600090815260026020526040902054849060ff16156105175760405162461bcd60e51b815260206004820152601160248201527054686973206f776e65722065786973747360781b604482015260640161019a565b60005b6001548110156105b557866001600160a01b031660018281548110610541576105416109e9565b6000918252602090912001546001600160a01b031614156105a3578560018281548110610570576105706109e9565b9060005260206000200160006101000a8154816001600160a01b0302191690836001600160a01b031602179055506105b5565b806105ad816109ff565b91505061051a565b506001600160a01b03808716600081815260026020526040808220805460ff1990811690915593891682528082208054909416600117909355915190917f8001553a916ef2f495d26a907cc54d96ed840d7bda71e73194bf5a9df7a76b9091a26040516001600160a01b038616907ff39e6e1eb0edcf53c221607b54b00cd28f3196fed0a24994dc308b8f611b682d90600090a2505050505050565b6000546001600160a01b0316331461067b5760405162461bcd60e51b815260040161019a90610955565b600080546001600160a01b0319166001600160a01b038316908117825560405190917f1d751f0bc5c9e1dd4d5952599ce7bb9ef42169fb73003fc75d9e6a26d135136c91a250565b6000546001600160a01b031633146106ed5760405162461bcd60e51b815260040161019a90610955565b806001600160a01b0381166107145760405162461bcd60e51b815260040161019a9061098c565b6001600160a01b038216600090815260026020526040902054829060ff16156107735760405162461bcd60e51b815260206004820152601160248201527054686973206f776e65722065786973747360781b604482015260640161019a565b6001600160a01b038316600081815260026020526040808220805460ff19166001908117909155805480820182559083527fb10e2d527612073b26eecdfd717e6a320cf44b4afac2b0732d9fcbe2b7fa0cf60180546001600160a01b03191684179055517ff39e6e1eb0edcf53c221607b54b00cd28f3196fed0a24994dc308b8f611b682d9190a26103d060018054806020026020016040519081016040528092919081815260200182805480156103c6576020028201919060005260206000209081546001600160a01b031681526001909101906020018083116103a857505050505061087b565b60006108688284610a30565b9392505050565b60006108688284610a4f565b60006108898251603c61085c565b905061089681606461086f565b60038190556040519081527f672e46ac0e6acc1662bb680b70032b6d2669924997353a59f789f7be780f8d3e9060200160405180910390a15050565b6000602082840312156108e457600080fd5b5035919050565b80356001600160a01b038116811461090257600080fd5b919050565b60006020828403121561091957600080fd5b610868826108eb565b6000806040838503121561093557600080fd5b61093e836108eb565b915061094c602084016108eb565b90509250929050565b6020808252601e908201527f43616e74206265206163636573736564206f6e6c792062792061646d696e0000604082015260600190565b6020808252601690820152751059191c995cdcc8111bd95cc81b9bdd08195e1a5cdd60521b604082015260600190565b634e487b7160e01b600052601160045260246000fd5b6000828210156109e4576109e46109bc565b500390565b634e487b7160e01b600052603260045260246000fd5b6000600019821415610a1357610a136109bc565b5060010190565b634e487b7160e01b600052603160045260246000fd5b6000816000190483118215151615610a4a57610a4a6109bc565b500290565b600082610a6c57634e487b7160e01b600052601260045260246000fd5b50049056fea264697066735822122011729cbb78304955ea072045be7aca2e74b29d0fb461345b3b544cdd9d54ff0164736f6c63430008090033",
  "immutableReferences": {},
  "source": "// SPDX-License-Identifier: UNLICENSED\npragma solidity ^0.8.9;\n\nimport \"../node_modules/@openzeppelin/contracts/utils/math/SafeMath.sol\";\n\n// Uncomment this line to use console.log\n// import \"hardhat/console.sol\";\n\ncontract AccessControl {\n    using SafeMath for uint256;\n\n\n    event Deposit(address indexed sender, uint256 value);\n    event Submission(uint256 indexed transactionId);\n    event Confirmation(address indexed sender, uint256 indexed transactionId);\n    event Execution(uint256 indexed transactionId);\n    event ExecutionFailure(uint256 indexed transactionId);\n    event Revocation(address indexed sender, uint256 indexed transactionId);\n    event OwnerAddition(address indexed owner);\n    event OwnerRemoval(address indexed owner);\n    event QuorumUpdate(uint256 quorum);\n    event AdminTransfer(address indexed newAdmin);\n\n    address public admin;\n\n    address[] public owners;\n    mapping(address => bool) public isOwner;\n    uint256 quorum;\n\n    modifier onlyAdmin() {\n        require(msg.sender == admin, \"Cant be accessed only by admin\");\n        _;\n    }\n    \n    modifier addressNotNull(address _address){\n        require(_address != address(0), \"Address Does not exist\");\n        _;\n    }\n    modifier ownerExists(address owner){\n        require(isOwner[owner] == true, \"This owner does not exist\");\n        _;\n    }\n    modifier ownerDoesntExist(address owner) {\n        require(isOwner[owner] == false, \"This owner exists\");\n        _;\n    }\n\n\n    constructor(address[] memory _owners) {\n        admin = msg.sender;\n        require(_owners.length >= 3, \"There should be atleast 3 addresses\");\n        for(uint256 i=0; i< _owners.length; i++){\n            isOwner[_owners[i]]= true;\n        }\n\n        owners = _owners;\n        uint256 num = SafeMath.mul(owners.length, 60);\n        quorum = SafeMath.div(num, 100);\n\n    }\n\n    function addOwner(address owner) public onlyAdmin addressNotNull(owner) ownerDoesntExist(owner) {\n        isOwner[owner] = true;\n        owners.push(owner);\n\n        emit OwnerAddition(owner);\n        updateQuorum(owners);\n\n    }\n\n    function removeOwner(address owner) public onlyAdmin addressNotNull(owner) ownerExists(owner) {\n\n        isOwner[owner] = false;\n        for(uint256 i =0;i<owners.length -1; i++)\n            if(owners[i]== owner){\n                owners[i] = owners[owners.length-1];\n                break;\n            }\n        owners.pop();\n\n        updateQuorum(owners);\n        \n    }\n\n    function transferOwner(address _from, address _to) public onlyAdmin addressNotNull(_from) addressNotNull(_to) ownerExists(_from) ownerDoesntExist(_to){\n        for(uint256 i = 0; i < owners.length; i++)\n            if(owners[i] == _from){\n                owners[i] = _to;\n                break;\n            }\n        isOwner[_from] = false;\n        isOwner[_to] = true;\n\n        emit OwnerRemoval(_from);\n        emit OwnerAddition(_to);\n    }\n\n    function renounceAdmin(address newAdmin) public onlyAdmin {\n        admin = newAdmin;\n        emit AdminTransfer(newAdmin);\n    }\n\n    function updateQuorum(address[] memory _owners) internal {\n        uint256 num = SafeMath.mul(_owners.length,60);\n        quorum = SafeMath.div(num,100);\n        emit QuorumUpdate(quorum);\n    }\n}\n",
  "sourcePath": "/Users/akashneelesh/Desktop/TokenTruffle/contracts/AccessControl.sol",
  "compiler": {
    "name": "solc",
    "version": "0.8.9+commit.e5eed63a.Emscripten.clang"
  },
  "schemaVersion": "3.4.11",
  "updatedAt": "2022-12-18T11:48:02.723Z",
  "devdoc": {
    "kind": "dev",
    "methods": {},
    "version": 1
  },
  "userdoc": {
    "kind": "user",
    "methods": {},
    "version": 1
  }
}