{
  "contractName": "MultisigWallet",
  "abi": [
    {
      "inputs": [
        {
          "internalType": "address[]",
          "name": "_owners",
          "type": "address[]"
        }
      ],
      "stateMutability": "nonpayable",
      "type": "constructor"
    },
    {
      "anonymous": false,
      "inputs": [
        {
          "indexed": true,
          "internalType": "address",
          "name": "newAdmin",
          "type": "address"
        }
      ],
      "name": "AdminTransfer",
      "type": "event"
    },
    {
      "anonymous": false,
      "inputs": [
        {
          "indexed": true,
          "internalType": "address",
          "name": "sender",
          "type": "address"
        },
        {
          "indexed": true,
          "internalType": "uint256",
          "name": "transactionId",
          "type": "uint256"
        }
      ],
      "name": "Confirmation",
      "type": "event"
    },
    {
      "anonymous": false,
      "inputs": [
        {
          "indexed": true,
          "internalType": "address",
          "name": "sender",
          "type": "address"
        },
        {
          "indexed": false,
          "internalType": "uint256",
          "name": "value",
          "type": "uint256"
        }
      ],
      "name": "Deposit",
      "type": "event"
    },
    {
      "anonymous": false,
      "inputs": [
        {
          "indexed": true,
          "internalType": "uint256",
          "name": "transactionId",
          "type": "uint256"
        }
      ],
      "name": "Execution",
      "type": "event"
    },
    {
      "anonymous": false,
      "inputs": [
        {
          "indexed": true,
          "internalType": "uint256",
          "name": "transactionId",
          "type": "uint256"
        }
      ],
      "name": "ExecutionFailure",
      "type": "event"
    },
    {
      "anonymous": false,
      "inputs": [
        {
          "indexed": true,
          "internalType": "address",
          "name": "owner",
          "type": "address"
        }
      ],
      "name": "OwnerAddition",
      "type": "event"
    },
    {
      "anonymous": false,
      "inputs": [
        {
          "indexed": true,
          "internalType": "address",
          "name": "owner",
          "type": "address"
        }
      ],
      "name": "OwnerRemoval",
      "type": "event"
    },
    {
      "anonymous": false,
      "inputs": [
        {
          "indexed": false,
          "internalType": "uint256",
          "name": "quorum",
          "type": "uint256"
        }
      ],
      "name": "QuorumUpdate",
      "type": "event"
    },
    {
      "anonymous": false,
      "inputs": [
        {
          "indexed": true,
          "internalType": "address",
          "name": "sender",
          "type": "address"
        },
        {
          "indexed": true,
          "internalType": "uint256",
          "name": "transactionId",
          "type": "uint256"
        }
      ],
      "name": "Revocation",
      "type": "event"
    },
    {
      "anonymous": false,
      "inputs": [
        {
          "indexed": true,
          "internalType": "uint256",
          "name": "transactionId",
          "type": "uint256"
        }
      ],
      "name": "Submission",
      "type": "event"
    },
    {
      "stateMutability": "payable",
      "type": "fallback",
      "payable": true
    },
    {
      "inputs": [
        {
          "internalType": "uint256",
          "name": "",
          "type": "uint256"
        }
      ],
      "name": "_validTransactions",
      "outputs": [
        {
          "internalType": "bool",
          "name": "executed",
          "type": "bool"
        },
        {
          "internalType": "address",
          "name": "destination",
          "type": "address"
        },
        {
          "internalType": "uint256",
          "name": "value",
          "type": "uint256"
        },
        {
          "internalType": "bytes",
          "name": "data",
          "type": "bytes"
        }
      ],
      "stateMutability": "view",
      "type": "function",
      "constant": true
    },
    {
      "inputs": [
        {
          "internalType": "address",
          "name": "owner",
          "type": "address"
        }
      ],
      "name": "addOwner",
      "outputs": [],
      "stateMutability": "nonpayable",
      "type": "function"
    },
    {
      "inputs": [],
      "name": "admin",
      "outputs": [
        {
          "internalType": "address",
          "name": "",
          "type": "address"
        }
      ],
      "stateMutability": "view",
      "type": "function",
      "constant": true
    },
    {
      "inputs": [
        {
          "internalType": "uint256",
          "name": "",
          "type": "uint256"
        },
        {
          "internalType": "address",
          "name": "",
          "type": "address"
        }
      ],
      "name": "confirmations",
      "outputs": [
        {
          "internalType": "bool",
          "name": "",
          "type": "bool"
        }
      ],
      "stateMutability": "view",
      "type": "function",
      "constant": true
    },
    {
      "inputs": [
        {
          "internalType": "address",
          "name": "",
          "type": "address"
        }
      ],
      "name": "isOwner",
      "outputs": [
        {
          "internalType": "bool",
          "name": "",
          "type": "bool"
        }
      ],
      "stateMutability": "view",
      "type": "function",
      "constant": true
    },
    {
      "inputs": [
        {
          "internalType": "uint256",
          "name": "",
          "type": "uint256"
        }
      ],
      "name": "owners",
      "outputs": [
        {
          "internalType": "address",
          "name": "",
          "type": "address"
        }
      ],
      "stateMutability": "view",
      "type": "function",
      "constant": true
    },
    {
      "inputs": [
        {
          "internalType": "address",
          "name": "owner",
          "type": "address"
        }
      ],
      "name": "removeOwner",
      "outputs": [],
      "stateMutability": "nonpayable",
      "type": "function"
    },
    {
      "inputs": [
        {
          "internalType": "address",
          "name": "newAdmin",
          "type": "address"
        }
      ],
      "name": "renounceAdmin",
      "outputs": [],
      "stateMutability": "nonpayable",
      "type": "function"
    },
    {
      "inputs": [],
      "name": "transactionCount",
      "outputs": [
        {
          "internalType": "uint256",
          "name": "",
          "type": "uint256"
        }
      ],
      "stateMutability": "view",
      "type": "function",
      "constant": true
    },
    {
      "inputs": [
        {
          "internalType": "uint256",
          "name": "",
          "type": "uint256"
        }
      ],
      "name": "transactions",
      "outputs": [
        {
          "internalType": "bool",
          "name": "executed",
          "type": "bool"
        },
        {
          "internalType": "address",
          "name": "destination",
          "type": "address"
        },
        {
          "internalType": "uint256",
          "name": "value",
          "type": "uint256"
        },
        {
          "internalType": "bytes",
          "name": "data",
          "type": "bytes"
        }
      ],
      "stateMutability": "view",
      "type": "function",
      "constant": true
    },
    {
      "inputs": [
        {
          "internalType": "address",
          "name": "_from",
          "type": "address"
        },
        {
          "internalType": "address",
          "name": "_to",
          "type": "address"
        }
      ],
      "name": "transferOwner",
      "outputs": [],
      "stateMutability": "nonpayable",
      "type": "function"
    },
    {
      "stateMutability": "payable",
      "type": "receive",
      "payable": true
    },
    {
      "inputs": [
        {
          "internalType": "address",
          "name": "destination",
          "type": "address"
        },
        {
          "internalType": "uint256",
          "name": "value",
          "type": "uint256"
        },
        {
          "internalType": "bytes",
          "name": "data",
          "type": "bytes"
        }
      ],
      "name": "submitTransaction",
      "outputs": [
        {
          "internalType": "uint256",
          "name": "transactionId",
          "type": "uint256"
        }
      ],
      "stateMutability": "nonpayable",
      "type": "function"
    },
    {
      "inputs": [
        {
          "internalType": "uint256",
          "name": "transactionId",
          "type": "uint256"
        }
      ],
      "name": "confirmTransaction",
      "outputs": [],
      "stateMutability": "nonpayable",
      "type": "function"
    },
    {
      "inputs": [
        {
          "internalType": "uint256",
          "name": "transactionId",
          "type": "uint256"
        }
      ],
      "name": "executeTransaction",
      "outputs": [],
      "stateMutability": "nonpayable",
      "type": "function"
    },
    {
      "inputs": [
        {
          "internalType": "uint256",
          "name": "transactionId",
          "type": "uint256"
        }
      ],
      "name": "revokeTransaction",
      "outputs": [],
      "stateMutability": "nonpayable",
      "type": "function"
    },
    {
      "inputs": [],
      "name": "getOwners",
      "outputs": [
        {
          "internalType": "address[]",
          "name": "",
          "type": "address[]"
        }
      ],
      "stateMutability": "view",
      "type": "function",
      "constant": true
    },
    {
      "inputs": [],
      "name": "getValidTranasactions",
      "outputs": [
        {
          "components": [
            {
              "internalType": "bool",
              "name": "executed",
              "type": "bool"
            },
            {
              "internalType": "address",
              "name": "destination",
              "type": "address"
            },
            {
              "internalType": "uint256",
              "name": "value",
              "type": "uint256"
            },
            {
              "internalType": "bytes",
              "name": "data",
              "type": "bytes"
            }
          ],
          "internalType": "struct MultisigWallet.Transaction[]",
          "name": "",
          "type": "tuple[]"
        }
      ],
      "stateMutability": "view",
      "type": "function",
      "constant": true
    },
    {
      "inputs": [],
      "name": "getQuorum",
      "outputs": [
        {
          "internalType": "uint256",
          "name": "",
          "type": "uint256"
        }
      ],
      "stateMutability": "view",
      "type": "function",
      "constant": true
    }
  ],
  "bytecode": "0x60806040523480156200001157600080fd5b5060405162001f5738038062001f5783398101604081905262000034916200024e565b600080546001600160a01b031916331790558051819060031115620000ab5760405162461bcd60e51b815260206004820152602360248201527f54686572652073686f756c642062652061746c6561737420332061646472657360448201526273657360e81b606482015260840160405180910390fd5b60005b81518110156200011a57600160026000848481518110620000d357620000d362000320565b6020908102919091018101516001600160a01b03168252810191909152604001600020805460ff19169115159190911790558062000111816200034c565b915050620000ae565b508051620001309060019060208401906200019a565b50600062000150600180549050603c6200017760201b620014101760201c565b90506200016a8160646200018c60201b620014231760201c565b60035550620003af915050565b60006200018582846200036a565b9392505050565b60006200018582846200038c565b828054828255906000526020600020908101928215620001f2579160200282015b82811115620001f257825182546001600160a01b0319166001600160a01b03909116178255602090920191600190910190620001bb565b506200020092915062000204565b5090565b5b8082111562000200576000815560010162000205565b634e487b7160e01b600052604160045260246000fd5b80516001600160a01b03811681146200024957600080fd5b919050565b600060208083850312156200026257600080fd5b82516001600160401b03808211156200027a57600080fd5b818501915085601f8301126200028f57600080fd5b815181811115620002a457620002a46200021b565b8060051b604051601f19603f83011681018181108582111715620002cc57620002cc6200021b565b604052918252848201925083810185019188831115620002eb57600080fd5b938501935b828510156200031457620003048562000231565b84529385019392850192620002f0565b98975050505050505050565b634e487b7160e01b600052603260045260246000fd5b634e487b7160e01b600052601160045260246000fd5b600060001982141562000363576200036362000336565b5060010190565b600081600019048311821515161562000387576200038762000336565b500290565b600082620003aa57634e487b7160e01b600052601260045260246000fd5b500490565b611b9880620003bf6000396000f3fe60806040526004361061010d5760003560e01c80639ace38c211610095578063c26c12eb11610064578063c26c12eb14610399578063c6427474146103ae578063dcf506e4146103ce578063ee22610b146103ee578063f851a4401461040e57610151565b80639ace38c214610303578063a0e67e2b14610333578063b77bf60014610355578063c01a8c841461037957610151565b806331678cf6116100dc57806331678cf6146102485780633411c81c146102685780635e1fab0f146102a35780637065cb48146102c3578063735631ad146102e357610151565b8063025e7c2714610189578063173825d9146101c657806321c3f643146101e65780632f54bf6e1461020857610151565b3661015157341561014f5760405134815233907fe1fffcc4923d04b559f4d29a8bfc6cda04eb5b0d3c460751c2402c5c5cc9109c906020015b60405180910390a25b005b341561014f5760405134815233907fe1fffcc4923d04b559f4d29a8bfc6cda04eb5b0d3c460751c2402c5c5cc9109c90602001610146565b34801561019557600080fd5b506101a96101a436600461159a565b61042e565b6040516001600160a01b0390911681526020015b60405180910390f35b3480156101d257600080fd5b5061014f6101e13660046115cf565b610458565b3480156101f257600080fd5b506101fb6106bd565b6040516101bd9190611637565b34801561021457600080fd5b506102386102233660046115cf565b60026020526000908152604090205460ff1681565b60405190151581526020016101bd565b34801561025457600080fd5b5061014f6102633660046116cd565b6107df565b34801561027457600080fd5b50610238610283366004611700565b600760209081526000928352604080842090915290825290205460ff1681565b3480156102af57600080fd5b5061014f6102be3660046115cf565b610a5b565b3480156102cf57600080fd5b5061014f6102de3660046115cf565b610acd565b3480156102ef57600080fd5b5061014f6102fe36600461159a565b610c66565b34801561030f57600080fd5b5061032361031e36600461159a565b610d93565b6040516101bd9493929190611723565b34801561033f57600080fd5b50610348610e51565b6040516101bd919061175c565b34801561036157600080fd5b5061036b60045481565b6040519081526020016101bd565b34801561038557600080fd5b5061014f61039436600461159a565b610eb3565b3480156103a557600080fd5b5060035461036b565b3480156103ba57600080fd5b5061036b6103c93660046117bf565b610fba565b3480156103da57600080fd5b506103236103e936600461159a565b6110db565b3480156103fa57600080fd5b5061014f61040936600461159a565b611129565b34801561041a57600080fd5b506000546101a9906001600160a01b031681565b6001818154811061043e57600080fd5b6000918252602090912001546001600160a01b0316905081565b6000546001600160a01b0316331461048b5760405162461bcd60e51b81526004016104829061188a565b60405180910390fd5b806001600160a01b0381166104b25760405162461bcd60e51b8152600401610482906118c1565b6001600160a01b038216600090815260026020526040902054829060ff16151560011461051d5760405162461bcd60e51b8152602060048201526019602482015278151a1a5cc81bdddb995c88191bd95cc81b9bdd08195e1a5cdd603a1b6044820152606401610482565b6001600160a01b0383166000908152600260205260408120805460ff191690555b6001805461054c9190611907565b81101561061b57836001600160a01b0316600182815481106105705761057061191e565b6000918252602090912001546001600160a01b03161415610609576001805461059a908290611907565b815481106105aa576105aa61191e565b600091825260209091200154600180546001600160a01b0390921691839081106105d6576105d661191e565b9060005260206000200160006101000a8154816001600160a01b0302191690836001600160a01b0316021790555061061b565b8061061381611934565b91505061053e565b50600180548061062d5761062d61194f565b6001900381819060005260206000200160006101000a8154906001600160a01b03021916905590556106b860018054806020026020016040519081016040528092919081815260200182805480156106ae57602002820191906000526020600020905b81546001600160a01b03168152600190910190602001808311610690575b505050505061142f565b505050565b60606006805480602002602001604051908101604052809291908181526020016000905b828210156107d65760008481526020908190206040805160808101825260038602909201805460ff81161515845261010090046001600160a01b03169383019390935260018301549082015260028201805491929160608401919061074590611965565b80601f016020809104026020016040519081016040528092919081815260200182805461077190611965565b80156107be5780601f10610793576101008083540402835291602001916107be565b820191906000526020600020905b8154815290600101906020018083116107a157829003601f168201915b505050505081525050815260200190600101906106e1565b50505050905090565b6000546001600160a01b031633146108095760405162461bcd60e51b81526004016104829061188a565b816001600160a01b0381166108305760405162461bcd60e51b8152600401610482906118c1565b816001600160a01b0381166108575760405162461bcd60e51b8152600401610482906118c1565b6001600160a01b038416600090815260026020526040902054849060ff1615156001146108c25760405162461bcd60e51b8152602060048201526019602482015278151a1a5cc81bdddb995c88191bd95cc81b9bdd08195e1a5cdd603a1b6044820152606401610482565b6001600160a01b038416600090815260026020526040902054849060ff16156109215760405162461bcd60e51b815260206004820152601160248201527054686973206f776e65722065786973747360781b6044820152606401610482565b60005b6001548110156109bf57866001600160a01b03166001828154811061094b5761094b61191e565b6000918252602090912001546001600160a01b031614156109ad57856001828154811061097a5761097a61191e565b9060005260206000200160006101000a8154816001600160a01b0302191690836001600160a01b031602179055506109bf565b806109b781611934565b915050610924565b506001600160a01b03808716600081815260026020526040808220805460ff1990811690915593891682528082208054909416600117909355915190917f8001553a916ef2f495d26a907cc54d96ed840d7bda71e73194bf5a9df7a76b9091a26040516001600160a01b038616907ff39e6e1eb0edcf53c221607b54b00cd28f3196fed0a24994dc308b8f611b682d90600090a2505050505050565b6000546001600160a01b03163314610a855760405162461bcd60e51b81526004016104829061188a565b600080546001600160a01b0319166001600160a01b038316908117825560405190917f1d751f0bc5c9e1dd4d5952599ce7bb9ef42169fb73003fc75d9e6a26d135136c91a250565b6000546001600160a01b03163314610af75760405162461bcd60e51b81526004016104829061188a565b806001600160a01b038116610b1e5760405162461bcd60e51b8152600401610482906118c1565b6001600160a01b038216600090815260026020526040902054829060ff1615610b7d5760405162461bcd60e51b815260206004820152601160248201527054686973206f776e65722065786973747360781b6044820152606401610482565b6001600160a01b038316600081815260026020526040808220805460ff19166001908117909155805480820182559083527fb10e2d527612073b26eecdfd717e6a320cf44b4afac2b0732d9fcbe2b7fa0cf60180546001600160a01b03191684179055517ff39e6e1eb0edcf53c221607b54b00cd28f3196fed0a24994dc308b8f611b682d9190a26106b860018054806020026020016040519081016040528092919081815260200182805480156106ae576020028201919060005260206000209081546001600160a01b0316815260019091019060200180831161069057505050505061142f565b3360008181526002602052604090205460ff161515600114610c9a5760405162461bcd60e51b8152600401610482906119a0565b60008281526007602090815260408083203380855292529091205483919060ff1615610cd85760405162461bcd60e51b8152600401610482906119d7565b600084815260056020526040902054849060ff1615610d095760405162461bcd60e51b815260040161048290611a22565b60008581526005602052604090205461010090046001600160a01b031680610d435760405162461bcd60e51b8152600401610482906118c1565b6000868152600760209081526040808320338085529252808320805460ff191690555188927ff6a317157440607f36269043eb55f1287a5a19ba2216afeab88cd46cbcfb88e991a3505050505050565b60056020526000908152604090208054600182015460028301805460ff8416946101009094046001600160a01b0316939190610dce90611965565b80601f0160208091040260200160405190810160405280929190818152602001828054610dfa90611965565b8015610e475780601f10610e1c57610100808354040283529160200191610e47565b820191906000526020600020905b815481529060010190602001808311610e2a57829003601f168201915b5050505050905084565b60606001805480602002602001604051908101604052809291908181526020018280548015610ea957602002820191906000526020600020905b81546001600160a01b03168152600190910190602001808311610e8b575b5050505050905090565b3360008181526002602052604090205460ff161515600114610ee75760405162461bcd60e51b8152600401610482906119a0565b60008281526007602090815260408083203380855292529091205483919060ff1615610f255760405162461bcd60e51b8152600401610482906119d7565b60008481526005602052604090205461010090046001600160a01b031680610f5f5760405162461bcd60e51b8152600401610482906118c1565b6000858152600760209081526040808320338085529252808320805460ff191660011790555187927f4a504a94899432a9846e1aa406dceb1bcfd538bb839071d49d1e5e23f5be30ef91a3610fb385611129565b5050505050565b3360008181526002602052604081205490919060ff161515600114610ff15760405162461bcd60e51b8152600401610482906119a0565b6004546040805160808101825260008082526001600160a01b0389811660208085019182528486018b8152606086018b815288865260058352969094208551815493516001600160a81b0319909416901515610100600160a81b031916176101009390941692909202929092178155915160018301559251805194965091939092611083926002850192910190611486565b5090505060016004600082825461109a9190611a6d565b909155505060405182907fc0ba8fe4b176c1714197d43b9cc6bcf797a4a7461c5fe8d0ef6e184ae7601e5190600090a26110d382610eb3565b509392505050565b600681815481106110eb57600080fd5b600091825260209091206003909102018054600182015460028301805460ff841695506101009093046001600160a01b0316939192610dce90611965565b3360008181526002602052604090205460ff16151560011461115d5760405162461bcd60e51b8152600401610482906119a0565b600082815260056020526040902054829060ff161561118e5760405162461bcd60e51b815260040161048290611a22565b600080805b60015481101561121d57600086815260076020526040812060018054919291849081106111c2576111c261191e565b60009182526020808320909101546001600160a01b0316835282019290925260400190205460ff16156111fd576111fa600184611a6d565b92505b600354831061120b57600191505b8061121581611934565b915050611193565b508015610fb3576000858152600560205260408082208054600160ff1990911681178083559082015492519193926101009091046001600160a01b031691611269906002860190611a85565b60006040518083038185875af1925050503d80600081146112a6576040519150601f19603f3d011682016040523d82523d6000602084013e6112ab565b606091505b5050905080156113d3576006805460018181018355600092909252835460039091027ff652222313e28459528d920b65115c16c04f3efc82aaedc97be59f3f377c0d3f8101805460ff909316151560ff1984168117825586546001600160a01b03610100918290041602610100600160a81b03199091166001600160a81b031990941693909317929092178255918401547ff652222313e28459528d920b65115c16c04f3efc82aaedc97be59f3f377c0d4083015560028401805485937ff652222313e28459528d920b65115c16c04f3efc82aaedc97be59f3f377c0d4101919061139590611965565b6113a092919061150a565b50506040518891507f33e13ecb54c3076d8e8bb8c2881800a4d972b792045ffae98fdf46df365fed7590600090a2611407565b60405187907f526441bb6c1aba3c9a4a6ca1d6545da9c2333c8c48343ef398eb858d72b7923690600090a2815460ff191682555b50505050505050565b600061141c8284611b21565b9392505050565b600061141c8284611b40565b600061143d8251603c611410565b905061144a816064611423565b60038190556040519081527f672e46ac0e6acc1662bb680b70032b6d2669924997353a59f789f7be780f8d3e9060200160405180910390a15050565b82805461149290611965565b90600052602060002090601f0160209004810192826114b457600085556114fa565b82601f106114cd57805160ff19168380011785556114fa565b828001600101855582156114fa579182015b828111156114fa5782518255916020019190600101906114df565b50611506929150611585565b5090565b82805461151690611965565b90600052602060002090601f01602090048101928261153857600085556114fa565b82601f1061154957805485556114fa565b828001600101855582156114fa57600052602060002091601f016020900482015b828111156114fa57825482559160010191906001019061156a565b5b808211156115065760008155600101611586565b6000602082840312156115ac57600080fd5b5035919050565b80356001600160a01b03811681146115ca57600080fd5b919050565b6000602082840312156115e157600080fd5b61141c826115b3565b6000815180845260005b81811015611610576020818501810151868301820152016115f4565b81811115611622576000602083870101525b50601f01601f19169290920160200192915050565b60006020808301818452808551808352604092508286019150828160051b87010184880160005b838110156116bf57888303603f190185528151805115158452878101516001600160a01b03168885015286810151878501526060908101516080918501829052906116ab818601836115ea565b96890196945050509086019060010161165e565b509098975050505050505050565b600080604083850312156116e057600080fd5b6116e9836115b3565b91506116f7602084016115b3565b90509250929050565b6000806040838503121561171357600080fd5b823591506116f7602084016115b3565b841515815260018060a01b038416602082015282604082015260806060820152600061175260808301846115ea565b9695505050505050565b6020808252825182820181905260009190848201906040850190845b8181101561179d5783516001600160a01b031683529284019291840191600101611778565b50909695505050505050565b634e487b7160e01b600052604160045260246000fd5b6000806000606084860312156117d457600080fd5b6117dd846115b3565b925060208401359150604084013567ffffffffffffffff8082111561180157600080fd5b818601915086601f83011261181557600080fd5b813581811115611827576118276117a9565b604051601f8201601f19908116603f0116810190838211818310171561184f5761184f6117a9565b8160405282815289602084870101111561186857600080fd5b8260208601602083013760006020848301015280955050505050509250925092565b6020808252601e908201527f43616e74206265206163636573736564206f6e6c792062792061646d696e0000604082015260600190565b6020808252601690820152751059191c995cdcc8111bd95cc81b9bdd08195e1a5cdd60521b604082015260600190565b634e487b7160e01b600052601160045260246000fd5b600082821015611919576119196118f1565b500390565b634e487b7160e01b600052603260045260246000fd5b6000600019821415611948576119486118f1565b5060010190565b634e487b7160e01b600052603160045260246000fd5b600181811c9082168061197957607f821691505b6020821081141561199a57634e487b7160e01b600052602260045260246000fd5b50919050565b60208082526018908201527f4e6f7420617574686f72697a656420666f7220746869732e0000000000000000604082015260600190565b6020808252602b908201527f596f75206861766520616c726561647920636f6e6669726d656420746869732060408201526a3a3930b739b0b1ba34b7b760a91b606082015260800190565b6020808252602b908201527f54686973207472616e73616374696f6e2068617320616c72656164792062656560408201526a371032bc32b1baba32b21760a91b606082015260800190565b60008219821115611a8057611a806118f1565b500190565b600080835481600182811c915080831680611aa157607f831692505b6020808410821415611ac157634e487b7160e01b86526022600452602486fd5b818015611ad55760018114611ae657611b13565b60ff19861689528489019650611b13565b60008a81526020902060005b86811015611b0b5781548b820152908501908301611af2565b505084890196505b509498975050505050505050565b6000816000190483118215151615611b3b57611b3b6118f1565b500290565b600082611b5d57634e487b7160e01b600052601260045260246000fd5b50049056fea2646970667358221220b0422c7f987034e39971838a1ec2784101d3d6134233b5abe93be8c826420a3c64736f6c63430008090033",
  "immutableReferences": {},
  "source": "pragma solidity ^0.8.9;\n\nimport \"./InterfaceWallet.sol\";\nimport \"./AccessControl.sol\";\nimport \"../node_modules/@openzeppelin/contracts/utils/math/SafeMath.sol\";\n\ncontract MultisigWallet is AccessControl{\n    using SafeMath for uint256;\n\n    struct Transaction {\n        bool executed;\n        address destination;\n        uint256 value;\n        bytes data;\n    }\n\n    uint256 public transactionCount;\n    mapping(uint256 => Transaction) public transactions;\n    Transaction[] public _validTransactions;\n\n    mapping(uint256 => mapping(address => bool)) public confirmations;\n\n    fallback() external payable {\n        if(msg.value > 0) {\n            emit Deposit(msg.sender, msg.value);\n        }\n    }\n\n    receive() external payable {\n        if(msg.value > 0) {\n            emit Deposit(msg.sender, msg.value);\n        }\n\n    }\n\n    modifier isOwnerAuth(address owner) {\n        require(isOwner[owner]== true,\"Not authorized for this.\");\n        _;\n    }\n\n    modifier isConfirmedAuth(uint256 transactionId,address owner) {\n        require(confirmations[transactionId][owner] == false,\"You have already confirmed this transaction\");\n        _;\n    }\n    modifier isExecutedMod(uint256 transactionId){\n        require(transactions[transactionId].executed == false,\n        \"This transaction has already been executed.\");\n        _;\n    }\n\n\n    constructor(address[] memory _owners) AccessControl(_owners){\n\n    }\n\n    function submitTransaction(address destination,uint256 value,bytes memory data) public isOwnerAuth(msg.sender) returns (uint256 transactionId){\n        transactionId = transactionCount;\n        transactions[transactionId] = Transaction({\n            destination: destination,\n            value: value,\n            data: data,\n            executed: false\n        });\n        transactionCount +=1;\n        emit Submission(transactionId);\n\n        confirmTransaction(transactionId);\n\n\n    }\n\n    function confirmTransaction(uint256 transactionId) public isOwnerAuth(msg.sender) isConfirmedAuth(transactionId,msg.sender) addressNotNull(transactions[transactionId].destination){\n        confirmations[transactionId][msg.sender] = true;\n        emit Confirmation(msg.sender, transactionId);\n\n        executeTransaction(transactionId);\n    }\n\n    function executeTransaction(uint256 transactionId) public isOwnerAuth(msg.sender) isExecutedMod(transactionId){\n        uint256 count = 0;\n        bool quorumReached;\n\n        for(uint256 i = 0; i<owners.length;i++) {\n            if(confirmations[transactionId][owners[i]])\n                count+=1;\n            \n            if(count >= quorum)\n                quorumReached= true;\n        }\n\n        if(quorumReached) {\n            Transaction storage txn = transactions[transactionId];\n            txn.executed = true;\n\n            (bool success, ) = txn.destination.call{\n                value: txn.value\n            } (txn.data);\n\n            if(success) {\n                _validTransactions.push(txn);\n                emit Execution(transactionId);\n            } else {\n                emit ExecutionFailure(transactionId);\n                txn.executed = false;\n            }\n        }\n    }\n\n    function revokeTransaction(uint256 transactionId) external isOwnerAuth(msg.sender) isConfirmedAuth(transactionId,msg.sender) isExecutedMod(transactionId) addressNotNull(transactions[transactionId].destination) {\n        confirmations[transactionId][msg.sender] = false;\n        emit Revocation(msg.sender, transactionId);\n    }\n\n    function getOwners() external view returns (address[] memory) {\n        return owners;\n    }\n\n    function getValidTranasactions() external view returns (Transaction[] memory){\n        return _validTransactions;\n    }\n\n    function getQuorum() external view returns (uint256) {\n        return quorum;\n    }\n    \n\n}",
  "sourcePath": "/Users/akashneelesh/Desktop/TokenTruffle/contracts/MultisigWallet.sol",
  "compiler": {
    "name": "solc",
    "version": "0.8.9+commit.e5eed63a.Emscripten.clang"
  },
  "schemaVersion": "3.4.11",
  "updatedAt": "2022-12-18T12:10:26.633Z",
  "networkType": "ethereum",
  "devdoc": {
    "kind": "dev",
    "methods": {},
    "version": 1
  },
  "userdoc": {
    "kind": "user",
    "methods": {},
    "version": 1
  }
}